{
  "_format": "hh-sol-artifact-1",
  "contractName": "Cluster",
  "sourceName": "contracts/Cluster.sol",
  "abi": [
    {
      "inputs": [
        {
          "internalType": "string",
          "name": "name",
          "type": "string"
        },
        {
          "internalType": "uint256",
          "name": "voteTime",
          "type": "uint256"
        },
        {
          "internalType": "uint256",
          "name": "quorum",
          "type": "uint256"
        },
        {
          "internalType": "address[]",
          "name": "members",
          "type": "address[]"
        }
      ],
      "name": "createDAO",
      "outputs": [],
      "stateMutability": "nonpayable",
      "type": "function"
    },
    {
      "inputs": [
        {
          "internalType": "uint256",
          "name": "id",
          "type": "uint256"
        }
      ],
      "name": "getDAO",
      "outputs": [
        {
          "components": [
            {
              "internalType": "uint256",
              "name": "id",
              "type": "uint256"
            },
            {
              "internalType": "string",
              "name": "name",
              "type": "string"
            },
            {
              "internalType": "address",
              "name": "contract_address",
              "type": "address"
            },
            {
              "internalType": "uint256",
              "name": "created_at",
              "type": "uint256"
            },
            {
              "internalType": "address",
              "name": "creator",
              "type": "address"
            }
          ],
          "internalType": "struct Cluster.Dao",
          "name": "",
          "type": "tuple"
        }
      ],
      "stateMutability": "view",
      "type": "function"
    },
    {
      "inputs": [
        {
          "internalType": "uint256",
          "name": "id",
          "type": "uint256"
        }
      ],
      "name": "getDAODetails",
      "outputs": [
        {
          "components": [
            {
              "internalType": "string",
              "name": "name",
              "type": "string"
            },
            {
              "internalType": "uint256",
              "name": "totalMembers",
              "type": "uint256"
            },
            {
              "internalType": "uint256",
              "name": "voteTime",
              "type": "uint256"
            },
            {
              "internalType": "uint256",
              "name": "quorum",
              "type": "uint256"
            },
            {
              "internalType": "uint256",
              "name": "balance",
              "type": "uint256"
            },
            {
              "internalType": "address",
              "name": "contract_address",
              "type": "address"
            }
          ],
          "internalType": "struct Cluster.DAODetails",
          "name": "",
          "type": "tuple"
        }
      ],
      "stateMutability": "view",
      "type": "function"
    },
    {
      "inputs": [],
      "name": "getDAOs",
      "outputs": [
        {
          "components": [
            {
              "internalType": "uint256",
              "name": "id",
              "type": "uint256"
            },
            {
              "internalType": "string",
              "name": "name",
              "type": "string"
            },
            {
              "internalType": "address",
              "name": "contract_address",
              "type": "address"
            },
            {
              "internalType": "uint256",
              "name": "created_at",
              "type": "uint256"
            },
            {
              "internalType": "address",
              "name": "creator",
              "type": "address"
            }
          ],
          "internalType": "struct Cluster.Dao[]",
          "name": "",
          "type": "tuple[]"
        }
      ],
      "stateMutability": "view",
      "type": "function"
    }
  ],
  "bytecode": "0x608060405234801561001057600080fd5b506137a0806100206000396000f3fe60806040523480156200001157600080fd5b5060043610620000525760003560e01c806303555c991462000057578063415cc7dd14620000775780635a29426c1462000099578063c1c6a5b714620000cf575b600080fd5b6200007560048036038101906200006f919062000d34565b62000105565b005b6200008162000295565b60405162000090919062000fe9565b60405180910390f35b620000b76004803603810190620000b191906200100d565b62000450565b604051620000c69190620010bf565b60405180910390f35b620000ed6004803603810190620000e791906200100d565b620005eb565b604051620000fc919062001178565b60405180910390f35b6000828433846040516200011990620008de565b6200012894939291906200127b565b604051809103906000f08015801562000145573d6000803e3d6000fd5b50905060006040518060a0016040528060008054905081526020018781526020018373ffffffffffffffffffffffffffffffffffffffff1681526020014281526020013373ffffffffffffffffffffffffffffffffffffffff168152509080600181540180825580915050600190039060005260206000209060050201600090919091909150600082015181600001556020820151816001019080519060200190620001f3929190620008ec565b5060408201518160020160006101000a81548173ffffffffffffffffffffffffffffffffffffffff021916908373ffffffffffffffffffffffffffffffffffffffff1602179055506060820151816003015560808201518160040160006101000a81548173ffffffffffffffffffffffffffffffffffffffff021916908373ffffffffffffffffffffffffffffffffffffffff16021790555050505050505050565b60606000805480602002602001604051908101604052809291908181526020016000905b828210156200044757838290600052602060002090600502016040518060a001604052908160008201548152602001600182018054620002f990620012fe565b80601f01602080910402602001604051908101604052809291908181526020018280546200032790620012fe565b8015620003785780601f106200034c5761010080835404028352916020019162000378565b820191906000526020600020905b8154815290600101906020018083116200035a57829003601f168201915b505050505081526020016002820160009054906101000a900473ffffffffffffffffffffffffffffffffffffffff1673ffffffffffffffffffffffffffffffffffffffff1673ffffffffffffffffffffffffffffffffffffffff168152602001600382015481526020016004820160009054906101000a900473ffffffffffffffffffffffffffffffffffffffff1673ffffffffffffffffffffffffffffffffffffffff1673ffffffffffffffffffffffffffffffffffffffff168152505081526020019060010190620002b9565b50505050905090565b6200045a6200097d565b6000828154811062000471576200047062001334565b5b90600052602060002090600502016040518060a001604052908160008201548152602001600182018054620004a690620012fe565b80601f0160208091040260200160405190810160405280929190818152602001828054620004d490620012fe565b8015620005255780601f10620004f95761010080835404028352916020019162000525565b820191906000526020600020905b8154815290600101906020018083116200050757829003601f168201915b505050505081526020016002820160009054906101000a900473ffffffffffffffffffffffffffffffffffffffff1673ffffffffffffffffffffffffffffffffffffffff1673ffffffffffffffffffffffffffffffffffffffff168152602001600382015481526020016004820160009054906101000a900473ffffffffffffffffffffffffffffffffffffffff1673ffffffffffffffffffffffffffffffffffffffff1673ffffffffffffffffffffffffffffffffffffffff16815250509050919050565b620005f5620009d8565b60008083815481106200060d576200060c62001334565b5b906000526020600020906005020160020160009054906101000a900473ffffffffffffffffffffffffffffffffffffffff1690506040518060c001604052806000858154811062000663576200066262001334565b5b906000526020600020906005020160010180546200068190620012fe565b80601f0160208091040260200160405190810160405280929190818152602001828054620006af90620012fe565b8015620007005780601f10620006d45761010080835404028352916020019162000700565b820191906000526020600020905b815481529060010190602001808311620006e257829003601f168201915b505050505081526020018273ffffffffffffffffffffffffffffffffffffffff166376e925596040518163ffffffff1660e01b815260040160206040518083038186803b1580156200075157600080fd5b505afa15801562000766573d6000803e3d6000fd5b505050506040513d601f19601f820116820180604052508101906200078c91906200137a565b81526020018273ffffffffffffffffffffffffffffffffffffffff1663bcf93dd66040518163ffffffff1660e01b815260040160206040518083038186803b158015620007d857600080fd5b505afa158015620007ed573d6000803e3d6000fd5b505050506040513d601f19601f820116820180604052508101906200081391906200137a565b81526020018273ffffffffffffffffffffffffffffffffffffffff16631703a0186040518163ffffffff1660e01b815260040160206040518083038186803b1580156200085f57600080fd5b505afa15801562000874573d6000803e3d6000fd5b505050506040513d601f19601f820116820180604052508101906200089a91906200137a565b81526020018273ffffffffffffffffffffffffffffffffffffffff163181526020018273ffffffffffffffffffffffffffffffffffffffff16815250915050919050565b6123be80620013ad83390190565b828054620008fa90620012fe565b90600052602060002090601f0160209004810192826200091e57600085556200096a565b82601f106200093957805160ff19168380011785556200096a565b828001600101855582156200096a579182015b82811115620009695782518255916020019190600101906200094c565b5b50905062000979919062000a24565b5090565b6040518060a001604052806000815260200160608152602001600073ffffffffffffffffffffffffffffffffffffffff16815260200160008152602001600073ffffffffffffffffffffffffffffffffffffffff1681525090565b6040518060c001604052806060815260200160008152602001600081526020016000815260200160008152602001600073ffffffffffffffffffffffffffffffffffffffff1681525090565b5b8082111562000a3f57600081600090555060010162000a25565b5090565b6000604051905090565b600080fd5b600080fd5b600080fd5b600080fd5b6000601f19601f8301169050919050565b7f4e487b7100000000000000000000000000000000000000000000000000000000600052604160045260246000fd5b62000aac8262000a61565b810181811067ffffffffffffffff8211171562000ace5762000acd62000a72565b5b80604052505050565b600062000ae362000a43565b905062000af1828262000aa1565b919050565b600067ffffffffffffffff82111562000b145762000b1362000a72565b5b62000b1f8262000a61565b9050602081019050919050565b82818337600083830152505050565b600062000b5262000b4c8462000af6565b62000ad7565b90508281526020810184848401111562000b715762000b7062000a5c565b5b62000b7e84828562000b2c565b509392505050565b600082601f83011262000b9e5762000b9d62000a57565b5b813562000bb084826020860162000b3b565b91505092915050565b6000819050919050565b62000bce8162000bb9565b811462000bda57600080fd5b50565b60008135905062000bee8162000bc3565b92915050565b600067ffffffffffffffff82111562000c125762000c1162000a72565b5b602082029050602081019050919050565b600080fd5b600073ffffffffffffffffffffffffffffffffffffffff82169050919050565b600062000c558262000c28565b9050919050565b62000c678162000c48565b811462000c7357600080fd5b50565b60008135905062000c878162000c5c565b92915050565b600062000ca462000c9e8462000bf4565b62000ad7565b9050808382526020820190506020840283018581111562000cca5762000cc962000c23565b5b835b8181101562000cf7578062000ce2888262000c76565b84526020840193505060208101905062000ccc565b5050509392505050565b600082601f83011262000d195762000d1862000a57565b5b813562000d2b84826020860162000c8d565b91505092915050565b6000806000806080858703121562000d515762000d5062000a4d565b5b600085013567ffffffffffffffff81111562000d725762000d7162000a52565b5b62000d808782880162000b86565b945050602062000d938782880162000bdd565b935050604062000da68782880162000bdd565b925050606085013567ffffffffffffffff81111562000dca5762000dc962000a52565b5b62000dd88782880162000d01565b91505092959194509250565b600081519050919050565b600082825260208201905092915050565b6000819050602082019050919050565b62000e1b8162000bb9565b82525050565b600081519050919050565b600082825260208201905092915050565b60005b8381101562000e5d57808201518184015260208101905062000e40565b8381111562000e6d576000848401525b50505050565b600062000e808262000e21565b62000e8c818562000e2c565b935062000e9e81856020860162000e3d565b62000ea98162000a61565b840191505092915050565b62000ebf8162000c48565b82525050565b600060a08301600083015162000edf600086018262000e10565b506020830151848203602086015262000ef9828262000e73565b915050604083015162000f10604086018262000eb4565b50606083015162000f25606086018262000e10565b50608083015162000f3a608086018262000eb4565b508091505092915050565b600062000f53838362000ec5565b905092915050565b6000602082019050919050565b600062000f758262000de4565b62000f81818562000def565b93508360208202850162000f958562000e00565b8060005b8581101562000fd7578484038952815162000fb5858262000f45565b945062000fc28362000f5b565b925060208a0199505060018101905062000f99565b50829750879550505050505092915050565b6000602082019050818103600083015262001005818462000f68565b905092915050565b60006020828403121562001026576200102562000a4d565b5b6000620010368482850162000bdd565b91505092915050565b600060a08301600083015162001059600086018262000e10565b506020830151848203602086015262001073828262000e73565b91505060408301516200108a604086018262000eb4565b5060608301516200109f606086018262000e10565b506080830151620010b4608086018262000eb4565b508091505092915050565b60006020820190508181036000830152620010db81846200103f565b905092915050565b600060c083016000830151848203600086015262001102828262000e73565b915050602083015162001119602086018262000e10565b5060408301516200112e604086018262000e10565b50606083015162001143606086018262000e10565b50608083015162001158608086018262000e10565b5060a08301516200116d60a086018262000eb4565b508091505092915050565b60006020820190508181036000830152620011948184620010e3565b905092915050565b620011a78162000bb9565b82525050565b620011b88162000c48565b82525050565b600081519050919050565b600082825260208201905092915050565b6000819050602082019050919050565b6000620011f8838362000eb4565b60208301905092915050565b6000602082019050919050565b60006200121e82620011be565b6200122a8185620011c9565b93506200123783620011da565b8060005b838110156200126e578151620012528882620011ea565b97506200125f8362001204565b9250506001810190506200123b565b5085935050505092915050565b60006080820190506200129260008301876200119c565b620012a160208301866200119c565b620012b06040830185620011ad565b8181036060830152620012c4818462001211565b905095945050505050565b7f4e487b7100000000000000000000000000000000000000000000000000000000600052602260045260246000fd5b600060028204905060018216806200131757607f821691505b602082108114156200132e576200132d620012cf565b5b50919050565b7f4e487b7100000000000000000000000000000000000000000000000000000000600052603260045260246000fd5b600081519050620013748162000bc3565b92915050565b60006020828403121562001393576200139262000a4d565b5b6000620013a38482850162001363565b9150509291505056fe60806040523480156200001157600080fd5b50604051620023be380380620023be833981810160405281019062000037919062000377565b83600081905550826001819055506001600560008473ffffffffffffffffffffffffffffffffffffffff1673ffffffffffffffffffffffffffffffffffffffff16815260200190815260200160002060006101000a81548160ff02191690831515021790555060018151620000ad919062000437565b60038190555060005b815181101562000143576001151560056000848481518110620000de57620000dd62000494565b5b602002602001015173ffffffffffffffffffffffffffffffffffffffff1673ffffffffffffffffffffffffffffffffffffffff16815260200190815260200160002060009054906101000a9050505080806200013a90620004c3565b915050620000b6565b505050505062000511565b6000604051905090565b600080fd5b600080fd5b6000819050919050565b620001778162000162565b81146200018357600080fd5b50565b60008151905062000197816200016c565b92915050565b600073ffffffffffffffffffffffffffffffffffffffff82169050919050565b6000620001ca826200019d565b9050919050565b620001dc81620001bd565b8114620001e857600080fd5b50565b600081519050620001fc81620001d1565b92915050565b600080fd5b6000601f19601f8301169050919050565b7f4e487b7100000000000000000000000000000000000000000000000000000000600052604160045260246000fd5b620002528262000207565b810181811067ffffffffffffffff8211171562000274576200027362000218565b5b80604052505050565b6000620002896200014e565b905062000297828262000247565b919050565b600067ffffffffffffffff821115620002ba57620002b962000218565b5b602082029050602081019050919050565b600080fd5b6000620002e7620002e1846200029c565b6200027d565b905080838252602082019050602084028301858111156200030d576200030c620002cb565b5b835b818110156200033a5780620003258882620001eb565b8452602084019350506020810190506200030f565b5050509392505050565b600082601f8301126200035c576200035b62000202565b5b81516200036e848260208601620002d0565b91505092915050565b6000806000806080858703121562000394576200039362000158565b5b6000620003a48782880162000186565b9450506020620003b78782880162000186565b9350506040620003ca87828801620001eb565b925050606085015167ffffffffffffffff811115620003ee57620003ed6200015d565b5b620003fc8782880162000344565b91505092959194509250565b7f4e487b7100000000000000000000000000000000000000000000000000000000600052601160045260246000fd5b6000620004448262000162565b9150620004518362000162565b9250827fffffffffffffffffffffffffffffffffffffffffffffffffffffffffffffffff0382111562000489576200048862000408565b5b828201905092915050565b7f4e487b7100000000000000000000000000000000000000000000000000000000600052603260045260246000fd5b6000620004d08262000162565b91507fffffffffffffffffffffffffffffffffffffffffffffffffffffffffffffffff82141562000506576200050562000408565b5b600182019050919050565b611e9d80620005216000396000f3fe6080604052600436106100a05760003560e01c806376e925591161006457806376e925591461017a578063809dab6a146101a5578063b1e44d8f146101d0578063bcf93dd61461020d578063c7f758a814610238578063ed88c68e14610275576100a7565b80630121b93f146100a95780630d61b519146100d25780631703a018146100fb57806362564c4814610126578063752d74d114610151576100a7565b366100a757005b005b3480156100b557600080fd5b506100d060048036038101906100cb919061128b565b61027f565b005b3480156100de57600080fd5b506100f960048036038101906100f4919061128b565b610430565b005b34801561010757600080fd5b50610110610990565b60405161011d91906112c7565b60405180910390f35b34801561013257600080fd5b5061013b610996565b604051610148919061157b565b60405180910390f35b34801561015d57600080fd5b50610178600480360381019061017391906116fe565b610c45565b005b34801561018657600080fd5b5061018f610e35565b60405161019c91906112c7565b60405180910390f35b3480156101b157600080fd5b506101ba610e3b565b6040516101c791906112c7565b60405180910390f35b3480156101dc57600080fd5b506101f760048036038101906101f291906117cd565b610e50565b6040516102049190611809565b60405180910390f35b34801561021957600080fd5b50610222610ea6565b60405161022f91906112c7565b60405180910390f35b34801561024457600080fd5b5061025f600480360381019061025a919061128b565b610eac565b60405161026c91906118f7565b60405180910390f35b61027d611138565b005b600560003373ffffffffffffffffffffffffffffffffffffffff1673ffffffffffffffffffffffffffffffffffffffff16815260200190815260200160002060009054906101000a900460ff1661030b576040517f08c379a000000000000000000000000000000000000000000000000000000000815260040161030290611976565b60405180910390fd5b6004805490508110610352576040517f08c379a0000000000000000000000000000000000000000000000000000000008152600401610349906119e2565b60405180910390fd5b600660003373ffffffffffffffffffffffffffffffffffffffff1673ffffffffffffffffffffffffffffffffffffffff168152602001908152602001600020600082815260200190815260200160002060009054906101000a900460ff16156103f0576040517f08c379a00000000000000000000000000000000000000000000000000000000081526004016103e790611a4e565b60405180910390fd5b60016004828154811061040657610405611a6e565b5b906000526020600020906009020160070160008282546104269190611acc565b9250508190555050565b600560003373ffffffffffffffffffffffffffffffffffffffff1673ffffffffffffffffffffffffffffffffffffffff16815260200190815260200160002060009054906101000a900460ff166104bc576040517f08c379a00000000000000000000000000000000000000000000000000000000081526004016104b390611976565b60405180910390fd5b6004805490508110610503576040517f08c379a00000000000000000000000000000000000000000000000000000000081526004016104fa906119e2565b60405180910390fd5b60006004828154811061051957610518611a6e565b5b9060005260206000209060090201604051806101200160405290816000820154815260200160018201805461054d90611b51565b80601f016020809104026020016040519081016040528092919081815260200182805461057990611b51565b80156105c65780601f1061059b576101008083540402835291602001916105c6565b820191906000526020600020905b8154815290600101906020018083116105a957829003601f168201915b505050505081526020016002820180546105df90611b51565b80601f016020809104026020016040519081016040528092919081815260200182805461060b90611b51565b80156106585780601f1061062d57610100808354040283529160200191610658565b820191906000526020600020905b81548152906001019060200180831161063b57829003601f168201915b5050505050815260200160038201805461067190611b51565b80601f016020809104026020016040519081016040528092919081815260200182805461069d90611b51565b80156106ea5780601f106106bf576101008083540402835291602001916106ea565b820191906000526020600020905b8154815290600101906020018083116106cd57829003601f168201915b50505050508152602001600482015481526020016005820160009054906101000a900473ffffffffffffffffffffffffffffffffffffffff1673ffffffffffffffffffffffffffffffffffffffff1673ffffffffffffffffffffffffffffffffffffffff16815260200160068201548152602001600782015481526020016008820160009054906101000a900460ff161515151581525050905060005460646003548360e0015161079b9190611bb2565b6107a59190611be3565b10156107e6576040517f08c379a00000000000000000000000000000000000000000000000000000000081526004016107dd90611c89565b60405180910390fd5b8061010001511561082c576040517f08c379a000000000000000000000000000000000000000000000000000000000815260040161082390611cf5565b60405180910390fd5b6040518060400160405280600881526020017f7472616e7366657200000000000000000000000000000000000000000000000081525080519060200120816060015180519060200120141561094e5760008160a0015173ffffffffffffffffffffffffffffffffffffffff1682608001516040516108a990611d46565b60006040518083038185875af1925050503d80600081146108e6576040519150601f19603f3d011682016040523d82523d6000602084013e6108eb565b606091505b505090508061092f576040517f08c379a000000000000000000000000000000000000000000000000000000000815260040161092690611da7565b60405180910390fd5b8160800151600260008282546109459190611dc7565b92505081905550505b60016004838154811061096457610963611a6e565b5b906000526020600020906009020160080160006101000a81548160ff0219169083151502179055505050565b60005481565b60606004805480602002602001604051908101604052809291908181526020016000905b82821015610c3c578382906000526020600020906009020160405180610120016040529081600082015481526020016001820180546109f890611b51565b80601f0160208091040260200160405190810160405280929190818152602001828054610a2490611b51565b8015610a715780601f10610a4657610100808354040283529160200191610a71565b820191906000526020600020905b815481529060010190602001808311610a5457829003601f168201915b50505050508152602001600282018054610a8a90611b51565b80601f0160208091040260200160405190810160405280929190818152602001828054610ab690611b51565b8015610b035780601f10610ad857610100808354040283529160200191610b03565b820191906000526020600020905b815481529060010190602001808311610ae657829003601f168201915b50505050508152602001600382018054610b1c90611b51565b80601f0160208091040260200160405190810160405280929190818152602001828054610b4890611b51565b8015610b955780601f10610b6a57610100808354040283529160200191610b95565b820191906000526020600020905b815481529060010190602001808311610b7857829003601f168201915b50505050508152602001600482015481526020016005820160009054906101000a900473ffffffffffffffffffffffffffffffffffffffff1673ffffffffffffffffffffffffffffffffffffffff1673ffffffffffffffffffffffffffffffffffffffff16815260200160068201548152602001600782015481526020016008820160009054906101000a900460ff161515151581525050815260200190600101906109ba565b50505050905090565b8160025447610c549190611dc7565b1015610c95576040517f08c379a0000000000000000000000000000000000000000000000000000000008152600401610c8c90611e47565b60405180910390fd5b600460405180610120016040528060048054905081526020018781526020018681526020018581526020018481526020018373ffffffffffffffffffffffffffffffffffffffff16815260200160015442610cf09190611acc565b815260200160008152602001600015158152509080600181540180825580915050600190039060005260206000209060090201600090919091909150600082015181600001556020820151816001019080519060200190610d5292919061113a565b506040820151816002019080519060200190610d6f92919061113a565b506060820151816003019080519060200190610d8c92919061113a565b506080820151816004015560a08201518160050160006101000a81548173ffffffffffffffffffffffffffffffffffffffff021916908373ffffffffffffffffffffffffffffffffffffffff16021790555060c0820151816006015560e082015181600701556101008201518160080160006101000a81548160ff02191690831515021790555050508160026000828254610e279190611acc565b925050819055505050505050565b60035481565b600060025447610e4b9190611dc7565b905090565b6000600560008373ffffffffffffffffffffffffffffffffffffffff1673ffffffffffffffffffffffffffffffffffffffff16815260200190815260200160002060009054906101000a900460ff169050919050565b60015481565b610eb46111c0565b60048281548110610ec857610ec7611a6e565b5b90600052602060002090600902016040518061012001604052908160008201548152602001600182018054610efc90611b51565b80601f0160208091040260200160405190810160405280929190818152602001828054610f2890611b51565b8015610f755780601f10610f4a57610100808354040283529160200191610f75565b820191906000526020600020905b815481529060010190602001808311610f5857829003601f168201915b50505050508152602001600282018054610f8e90611b51565b80601f0160208091040260200160405190810160405280929190818152602001828054610fba90611b51565b80156110075780601f10610fdc57610100808354040283529160200191611007565b820191906000526020600020905b815481529060010190602001808311610fea57829003601f168201915b5050505050815260200160038201805461102090611b51565b80601f016020809104026020016040519081016040528092919081815260200182805461104c90611b51565b80156110995780601f1061106e57610100808354040283529160200191611099565b820191906000526020600020905b81548152906001019060200180831161107c57829003601f168201915b50505050508152602001600482015481526020016005820160009054906101000a900473ffffffffffffffffffffffffffffffffffffffff1673ffffffffffffffffffffffffffffffffffffffff1673ffffffffffffffffffffffffffffffffffffffff16815260200160068201548152602001600782015481526020016008820160009054906101000a900460ff1615151515815250509050919050565b565b82805461114690611b51565b90600052602060002090601f01602090048101928261116857600085556111af565b82601f1061118157805160ff19168380011785556111af565b828001600101855582156111af579182015b828111156111ae578251825591602001919060010190611193565b5b5090506111bc9190611224565b5090565b6040518061012001604052806000815260200160608152602001606081526020016060815260200160008152602001600073ffffffffffffffffffffffffffffffffffffffff16815260200160008152602001600081526020016000151581525090565b5b8082111561123d576000816000905550600101611225565b5090565b6000604051905090565b600080fd5b600080fd5b6000819050919050565b61126881611255565b811461127357600080fd5b50565b6000813590506112858161125f565b92915050565b6000602082840312156112a1576112a061124b565b5b60006112af84828501611276565b91505092915050565b6112c181611255565b82525050565b60006020820190506112dc60008301846112b8565b92915050565b600081519050919050565b600082825260208201905092915050565b6000819050602082019050919050565b61131781611255565b82525050565b600081519050919050565b600082825260208201905092915050565b60005b8381101561135757808201518184015260208101905061133c565b83811115611366576000848401525b50505050565b6000601f19601f8301169050919050565b60006113888261131d565b6113928185611328565b93506113a2818560208601611339565b6113ab8161136c565b840191505092915050565b600073ffffffffffffffffffffffffffffffffffffffff82169050919050565b60006113e1826113b6565b9050919050565b6113f1816113d6565b82525050565b60008115159050919050565b61140c816113f7565b82525050565b60006101208301600083015161142b600086018261130e565b5060208301518482036020860152611443828261137d565b9150506040830151848203604086015261145d828261137d565b91505060608301518482036060860152611477828261137d565b915050608083015161148c608086018261130e565b5060a083015161149f60a08601826113e8565b5060c08301516114b260c086018261130e565b5060e08301516114c560e086018261130e565b506101008301516114da610100860182611403565b508091505092915050565b60006114f18383611412565b905092915050565b6000602082019050919050565b6000611511826112e2565b61151b81856112ed565b93508360208202850161152d856112fe565b8060005b85811015611569578484038952815161154a85826114e5565b9450611555836114f9565b925060208a01995050600181019050611531565b50829750879550505050505092915050565b600060208201905081810360008301526115958184611506565b905092915050565b600080fd5b600080fd5b7f4e487b7100000000000000000000000000000000000000000000000000000000600052604160045260246000fd5b6115df8261136c565b810181811067ffffffffffffffff821117156115fe576115fd6115a7565b5b80604052505050565b6000611611611241565b905061161d82826115d6565b919050565b600067ffffffffffffffff82111561163d5761163c6115a7565b5b6116468261136c565b9050602081019050919050565b82818337600083830152505050565b600061167561167084611622565b611607565b905082815260208101848484011115611691576116906115a2565b5b61169c848285611653565b509392505050565b600082601f8301126116b9576116b861159d565b5b81356116c9848260208601611662565b91505092915050565b6116db816113d6565b81146116e657600080fd5b50565b6000813590506116f8816116d2565b92915050565b600080600080600060a0868803121561171a5761171961124b565b5b600086013567ffffffffffffffff81111561173857611737611250565b5b611744888289016116a4565b955050602086013567ffffffffffffffff81111561176557611764611250565b5b611771888289016116a4565b945050604086013567ffffffffffffffff81111561179257611791611250565b5b61179e888289016116a4565b93505060606117af88828901611276565b92505060806117c0888289016116e9565b9150509295509295909350565b6000602082840312156117e3576117e261124b565b5b60006117f1848285016116e9565b91505092915050565b611803816113f7565b82525050565b600060208201905061181e60008301846117fa565b92915050565b60006101208301600083015161183d600086018261130e565b5060208301518482036020860152611855828261137d565b9150506040830151848203604086015261186f828261137d565b91505060608301518482036060860152611889828261137d565b915050608083015161189e608086018261130e565b5060a08301516118b160a08601826113e8565b5060c08301516118c460c086018261130e565b5060e08301516118d760e086018261130e565b506101008301516118ec610100860182611403565b508091505092915050565b600060208201905081810360008301526119118184611824565b905092915050565b600082825260208201905092915050565b7f44414f3a206e6f742061206d656d626572210000000000000000000000000000600082015250565b6000611960601283611919565b915061196b8261192a565b602082019050919050565b6000602082019050818103600083015261198f81611953565b9050919050565b7f44414f3a20696e76616c69642070726f706f73616c2069642100000000000000600082015250565b60006119cc601983611919565b91506119d782611996565b602082019050919050565b600060208201905081810360008301526119fb816119bf565b9050919050565b7f44414f3a20596f7527766520616c726561647920766f74656421000000000000600082015250565b6000611a38601a83611919565b9150611a4382611a02565b602082019050919050565b60006020820190508181036000830152611a6781611a2b565b9050919050565b7f4e487b7100000000000000000000000000000000000000000000000000000000600052603260045260246000fd5b7f4e487b7100000000000000000000000000000000000000000000000000000000600052601160045260246000fd5b6000611ad782611255565b9150611ae283611255565b9250827fffffffffffffffffffffffffffffffffffffffffffffffffffffffffffffffff03821115611b1757611b16611a9d565b5b828201905092915050565b7f4e487b7100000000000000000000000000000000000000000000000000000000600052602260045260246000fd5b60006002820490506001821680611b6957607f821691505b60208210811415611b7d57611b7c611b22565b5b50919050565b7f4e487b7100000000000000000000000000000000000000000000000000000000600052601260045260246000fd5b6000611bbd82611255565b9150611bc883611255565b925082611bd857611bd7611b83565b5b828204905092915050565b6000611bee82611255565b9150611bf983611255565b9250817fffffffffffffffffffffffffffffffffffffffffffffffffffffffffffffffff0483118215151615611c3257611c31611a9d565b5b828202905092915050565b7f44414f3a2071756f72756d20686173206e6f74206265656e206d657421000000600082015250565b6000611c73601d83611919565b9150611c7e82611c3d565b602082019050919050565b60006020820190508181036000830152611ca281611c66565b9050919050565b7f44414f3a2070726f706f73616c20616c72656164792065786563757465642100600082015250565b6000611cdf601f83611919565b9150611cea82611ca9565b602082019050919050565b60006020820190508181036000830152611d0e81611cd2565b9050919050565b600081905092915050565b50565b6000611d30600083611d15565b9150611d3b82611d20565b600082019050919050565b6000611d5182611d23565b9150819050919050565b7f44414f3a207472616e73666572206661696c6564210000000000000000000000600082015250565b6000611d91601583611919565b9150611d9c82611d5b565b602082019050919050565b60006020820190508181036000830152611dc081611d84565b9050919050565b6000611dd282611255565b9150611ddd83611255565b925082821015611df057611def611a9d565b5b828203905092915050565b7f44414f3a20696e73756666696369656e742062616c616e636521000000000000600082015250565b6000611e31601a83611919565b9150611e3c82611dfb565b602082019050919050565b60006020820190508181036000830152611e6081611e24565b905091905056fea2646970667358221220190ffb536c32303fc5160922e6b37511fa4568501b9d100b6cf509495f5838cb64736f6c63430008090033a2646970667358221220a7822fc04eb7e058eff166941e8294e4af8332d90f3391d1590a4ea4f83d87f964736f6c63430008090033",
  "linkReferences": {},
  "deployedLinkReferences": {}
}